{
  "contractName": "AdminAuth",
  "abi": [
    {
      "anonymous": false,
      "inputs": [
        {
          "indexed": false,
          "internalType": "string",
          "name": "username",
          "type": "string"
        },
        {
          "indexed": false,
          "internalType": "string",
          "name": "email",
          "type": "string"
        },
        {
          "indexed": false,
          "internalType": "string",
          "name": "password",
          "type": "string"
        }
      ],
      "name": "adminCreated",
      "type": "event"
    },
    {
      "inputs": [],
      "name": "adminCount",
      "outputs": [
        {
          "internalType": "uint256",
          "name": "",
          "type": "uint256"
        }
      ],
      "stateMutability": "view",
      "type": "function",
      "constant": true
    },
    {
      "inputs": [
        {
          "internalType": "string",
          "name": "",
          "type": "string"
        }
      ],
      "name": "adminsList",
      "outputs": [
        {
          "internalType": "string",
          "name": "username",
          "type": "string"
        },
        {
          "internalType": "string",
          "name": "email",
          "type": "string"
        },
        {
          "internalType": "string",
          "name": "password",
          "type": "string"
        }
      ],
      "stateMutability": "view",
      "type": "function",
      "constant": true
    },
    {
      "inputs": [
        {
          "internalType": "string",
          "name": "_username",
          "type": "string"
        },
        {
          "internalType": "string",
          "name": "_email",
          "type": "string"
        },
        {
          "internalType": "string",
          "name": "_password",
          "type": "string"
        }
      ],
      "name": "createAdmin",
      "outputs": [],
      "stateMutability": "nonpayable",
      "type": "function"
    }
  ],
  "bytecode": "0x60806040526000805534801561001457600080fd5b506108cf806100246000396000f3fe608060405234801561001057600080fd5b50600436106100415760003560e01c80632b7832b3146100465780636c9fe07614610064578063f150dbd014610080575b600080fd5b61004e6100b2565b60405161005b9190610436565b60405180910390f35b61007e600480360381019061007991906105ab565b6100b8565b005b61009a60048036038101906100959190610652565b6101a2565b6040516100a993929190610723565b60405180910390f35b60005481565b6000808154809291906100ca9061079e565b91905055506040518060600160405280848152602001838152602001828152506001836040516100fa9190610822565b9081526020016040518091039020600082015181600001908051906020019061012492919061037a565b50602082015181600101908051906020019061014192919061037a565b50604082015181600201908051906020019061015e92919061037a565b509050507f4dcbe44d31f50eaf3d32ddc9edcad3ffac7092db6b846b0846646b4a017ee5e883838360405161019593929190610723565b60405180910390a1505050565b6001818051602081018201805184825260208301602085012081835280955050505050506000915090508060000180546101db90610868565b80601f016020809104026020016040519081016040528092919081815260200182805461020790610868565b80156102545780601f1061022957610100808354040283529160200191610254565b820191906000526020600020905b81548152906001019060200180831161023757829003601f168201915b50505050509080600101805461026990610868565b80601f016020809104026020016040519081016040528092919081815260200182805461029590610868565b80156102e25780601f106102b7576101008083540402835291602001916102e2565b820191906000526020600020905b8154815290600101906020018083116102c557829003601f168201915b5050505050908060020180546102f790610868565b80601f016020809104026020016040519081016040528092919081815260200182805461032390610868565b80156103705780601f1061034557610100808354040283529160200191610370565b820191906000526020600020905b81548152906001019060200180831161035357829003601f168201915b5050505050905083565b82805461038690610868565b90600052602060002090601f0160209004810192826103a857600085556103ef565b82601f106103c157805160ff19168380011785556103ef565b828001600101855582156103ef579182015b828111156103ee5782518255916020019190600101906103d3565b5b5090506103fc9190610400565b5090565b5b80821115610419576000816000905550600101610401565b5090565b6000819050919050565b6104308161041d565b82525050565b600060208201905061044b6000830184610427565b92915050565b6000604051905090565b600080fd5b600080fd5b600080fd5b600080fd5b6000601f19601f8301169050919050565b7f4e487b7100000000000000000000000000000000000000000000000000000000600052604160045260246000fd5b6104b88261046f565b810181811067ffffffffffffffff821117156104d7576104d6610480565b5b80604052505050565b60006104ea610451565b90506104f682826104af565b919050565b600067ffffffffffffffff82111561051657610515610480565b5b61051f8261046f565b9050602081019050919050565b82818337600083830152505050565b600061054e610549846104fb565b6104e0565b90508281526020810184848401111561056a5761056961046a565b5b61057584828561052c565b509392505050565b600082601f83011261059257610591610465565b5b81356105a284826020860161053b565b91505092915050565b6000806000606084860312156105c4576105c361045b565b5b600084013567ffffffffffffffff8111156105e2576105e1610460565b5b6105ee8682870161057d565b935050602084013567ffffffffffffffff81111561060f5761060e610460565b5b61061b8682870161057d565b925050604084013567ffffffffffffffff81111561063c5761063b610460565b5b6106488682870161057d565b9150509250925092565b6000602082840312156106685761066761045b565b5b600082013567ffffffffffffffff81111561068657610685610460565b5b6106928482850161057d565b91505092915050565b600081519050919050565b600082825260208201905092915050565b60005b838110156106d55780820151818401526020810190506106ba565b838111156106e4576000848401525b50505050565b60006106f58261069b565b6106ff81856106a6565b935061070f8185602086016106b7565b6107188161046f565b840191505092915050565b6000606082019050818103600083015261073d81866106ea565b9050818103602083015261075181856106ea565b9050818103604083015261076581846106ea565b9050949350505050565b7f4e487b7100000000000000000000000000000000000000000000000000000000600052601160045260246000fd5b60006107a98261041d565b91507fffffffffffffffffffffffffffffffffffffffffffffffffffffffffffffffff82036107db576107da61076f565b5b600182019050919050565b600081905092915050565b60006107fc8261069b565b61080681856107e6565b93506108168185602086016106b7565b80840191505092915050565b600061082e82846107f1565b915081905092915050565b7f4e487b7100000000000000000000000000000000000000000000000000000000600052602260045260246000fd5b6000600282049050600182168061088057607f821691505b60208210810361089357610892610839565b5b5091905056fea2646970667358221220294c453c2c1e8e1fc1638b9ff9cb42117c1b4e2a6258237940f450dbedef1dd064736f6c634300080d0033",
  "immutableReferences": {},
  "source": "// SPDX-License-Identifier: MIT\r\npragma solidity >=0.4.22 <0.9.0;\r\n \r\ncontract AdminAuth\r\n{   \r\n    uint public adminCount = 0;\r\n \r\n    mapping(string => admin) public adminsList;\r\n \r\n     struct admin\r\n     {\r\n       string username;\r\n       string email;\r\n       string password;\r\n     }\r\n \r\n   // events\r\n \r\n   event adminCreated(\r\n      string username,\r\n      string email,\r\n      string password\r\n    );\r\n \r\n  function createAdmin(string memory _username,\r\n                      string memory _email,\r\n                      string memory _password) public\r\n  {     \r\n      adminCount++;\r\n      adminsList[_email] = admin(_username,\r\n                               _email,\r\n                               _password);\r\n      emit adminCreated(_username,\r\n                       _email,\r\n                       _password);\r\n    }\r\n}",
  "sourcePath": "D:\\admin-app\\contracts\\AdminAuth.sol",
  "compiler": {
    "name": "solc",
    "version": "0.8.13+commit.abaa5c0e.Emscripten.clang"
  },
  "schemaVersion": "3.4.13",
  "updatedAt": "2023-04-25T05:43:23.255Z",
  "networkType": "ethereum",
  "devdoc": {
    "kind": "dev",
    "methods": {},
    "version": 1
  },
  "userdoc": {
    "kind": "user",
    "methods": {},
    "version": 1
  }
}